:100000000C9479020C9496020C9496020C9496022D
:100010000C9496020C9496020C9496020C94960200
:100020000C9496020C9496020C94D70C0C946711C5
:100030000C94CF210C9496020C9496020C94960288
:100040000C9496020C9496020C9496020C949602D0
:100050000C9496020C94AE0D0C9496020C9496029D
:100060000C9496020C9496020C9496020C949602B0
:100070000C9496020C9496020C9496020C949602A0
:100080000C9496020C9496020C9496020C94960290
:100090000C9496020C9496020C9496020C94960280
:1000A0000C9496020C9496020C9496020501098019
:1000B000A101850319012AB700150126B700950192
:1000C00075108100C0050C0901A101850419012AE0
:1000D000A002150126A002950175108100C005013E
:1000E0000906A1018505050719E029E71500250185
:1000F0009508750181020507190029EF15002501F2
:1001000095F075018102050819012905950575010C
:100110009102950175039101C005010902A1010930
:1001200001A100050919012905150025019505758D
:10013000018102950175038101050109300931151D
:1001400081257F95027508810609381581257F95DF
:100150000175088106050C0A38021581257F950175
:1001600075088106C0C005010906A101050719E04F
:1001700029E715002501950875018102950175088B
:1001800081010507190029FF150026FF0095067556
:100190000881000508190129059505750191029549
:1001A0000175039101C00000000000000000000084
:1001B000000000000000000000007E0F00D4FFFFE0
:1001C000FFC70000007800000000000000002A2B9C
:1001D00028000000000000000000000000000000F7
:1001E0000029000000002C1E342021222434262760
:1001F000252E362D3738271E1F2021222324252681
:100200003333362E37381F0405060708090A0B0C4E
:100210000D0E0F101112131415161718191A1B1C96
:100220001D2F3130232D350405060708090A0B0C54
:100230000D0E0F101112131415161718191A1B1C76
:100240001D2F3130354C29002B64E100E0000151B5
:1002500000001E00330004003400350001001F00C0
:1002600000571200140001002A0020000157080066
:100270000D0050002C002100130018000E004F004C
:10028000010022001C000C001B00000001003800CF
:100290000100000001000000010031000100000029
:1002A0000100000001002300090007000500000014
:1002B000010024000A000B0010005200010025007C
:1002C000060017001A0051002800025715001100FF
:1002D00019003E00010003570F0016001D00010029
:1002E000E3002D002E0001000100010000002900A4
:1002F000010001000100010000003A0001002F028E
:100300000100010001003B0001003002010001007A
:1003100001003C0001002F000100010001003D0030
:10032000010030000100010001003E000100010059
:1003300001000000010001000000000001000000B9
:1003400001000100000000000100000001003F006A
:100350005300010001000000010040005F005C004C
:10036000590058000100410060005D005A008500FE
:100370002800420061005E005B0062000100430053
:1003800055005700540000000100440045000100E2
:1003900058000100000029000100010001000100D7
:1003A00000003A00010001000100010001003B00D3
:1003B0000100F2000100010001003C00F000F1002A
:1003C0000100010001003D000100F30001000100F7
:1003D00001003E00010001000100000001000100D9
:1003E0000100000001000000010001000100000008
:1003F0000100000001003F00FD00FE00FF000000C2
:1004000001004000F700F40001000100010041007C
:10041000F900F600FA00010001004200F800F500C2
:100420000100010001004300010001000100010082
:100430000100430045000100010001000000090225
:100440005400030100A0FA090400000103010100A7
:100450000921110100012240000705810308000A5B
:100460000904010001030102000921110100012218
:100470004D000705820308000A0904020001030079
:100480000000092111010001226D000705830320EE
:10049000000A1201000200000008973274490100AE
:1004A0000102000116034500720067006F0044005E
:1004B0006F007800200045005A00000030035A0009
:1004C00053004100200054006500630068006E0086
:1004D0006F006C006F006700790020004C00610025
:1004E00062007300200049006E00630000000403F6
:1004F000090411241FBECFEFDAE0DEBFCDBF11E04B
:10050000A0E0B1E0E6EAFEE402C005900D92A63B51
:10051000B107D9F722E0A6EBB1E001C01D92A93ED8
:10052000B207E1F70E943D1F0C9426270C940000AF
:10053000E8EDF0E080818E7F80831092E2001092DF
:10054000DA001092E100A0EEB0E08C9181608C9313
:1005500080818F77808319BCA7EDB0E08C918E7F6E
:100560008C9380818F7E80831092B30208952091B6
:10057000E4003091E50095E6A9012091EC00822F7E
:10058000817020FF06C08091E80080FF06C080E0F7
:1005900008952091E80022FD1AC08091D802882396
:1005A00089F0853089F08091EB0085FD0FC02091A6
:1005B000E4003091E50042175307F9F29150E1F65B
:1005C00084E0089582E0089583E0089581E008952D
:1005D000EF92FF920F931F93CF937C018B010E94A8
:1005E000B702C82F811117C08091E80085FD0BC0AC
:1005F0008091E8008E778093E8000E94B7028823FC
:1006000099F3C82F08C0F70181917F018093F10011
:100610000150110949F78C2FCF911F910F91FF9035
:10062000EF9008958091DA0287FF13C08091E8006F
:1006300082FF06C08091E8008B778093E80004C0B9
:100640008091D8028111F2CF08958091D802882339
:10065000D9F38091E80080FFF8CF8091E8008E7791
:10066000ECCF982F9093E900242F762F50E0891734
:1006700031F07091EC002091ED005091F00021FDDF
:1006800007C09F5F973071F78093E90081E008957C
:100690003091EB003E7F3093EB003091ED003D7FD9
:1006A0003093ED003091EB0031603093EB007093AC
:1006B000EC002093ED005093F0002091EE0027FD18
:1006C000E0CF80E00895CF92DF92EF92FF920F93F8
:1006D0001F93CF93DF93C8EDD0E088818F7E88830E
:1006E000E7EDF0E080818160808384E082BF81E07B
:1006F0008093B30288818E7F888302EE10E0F80138
:1007000010821092DA0081EEC82ED12CF6011082F0
:1007100088818F77888388818068888388818F7DAE
:10072000888319BC1092D8021092D9021092D70275
:100730001092D60290EEE92EF12CF70180818B7F8A
:10074000808388818160888342E060E080E00E944D
:100750003103F60180818E7F8083F8018081816082
:100760008083808188608083F70180818E7F808391
:10077000888180618883DF91CF911F910F91FF90D5
:10078000EF90DF90CF900895FC018091E00290916E
:10079000E10286179707A0F06115710529F4909181
:1007A000E8009E779093E80090E06115710551F4A0
:1007B000911108C08091E80082FF34C080E0089564
:1007C000BC01F2CF8091D8028823C1F18530C1F1FC
:1007D0008091E80083FD30C08091E80082FDEACF7F
:1007E0008091E80080FFE1CF8091F3002091F2003A
:1007F000382F6115710519F02830310558F091E056
:100800002830310509F090E02091E8002E77209300
:10081000E800CBCF81918093F100615071092F5F87
:100820003F4FE7CF8091D802882341F0853041F0D7
:100830008091E80083FFBECF81E0089582E00895B3
:1008400083E008958091B502089590919F02803FC2
:1008500059F48091A00287FF0DC01092A00291115F
:100860000BC010929B0208C0813F81F48091A002CE
:1008700018169CF3992381F08091A1029091A20215
:10088000892B09F064C0109298020895823F49F4C0
:1008900097FFF0CF10929F028091A0028111ECCFC0
:1008A000E0CF833F19F41916ACF3E4CF2091A102F5
:1008B000893F29F41216F4F61092A102DBCF8A3F89
:1008C00019F427FFD7CFF8CF2091A2028B3F29F44C
:1008D00027FFD0CF1092A202CDCF8C3F19F4121671
:1008E000CCF3C8CF843F31F480919E028E7F8093F9
:1008F0009E02C0CF853F21F480919E028D7FF7CF6D
:10090000863F21F480919E028B7FF1CF873F21F4B7
:1009100080919E02877FEBCF883F21F480919E02D9
:100920008F7EE5CF8D3F31F480916C028E7F809376
:100930006C02A0CF8E3F21F480916C028D7FF7CFA7
:100940008F3F09F097CF80916C028B7FF0CF089595
:1009500081E0089580916C0280FD14C081FD14C077
:1009600082FD16C080919B02882381F0843180F43F
:1009700029E1829FC001112464E170E00E94C3223A
:10098000862F089586E008958CE0089585E0089507
:1009900089E10895803F31F40E94AA0481958093F3
:1009A000A0020895813F19F40E94AA04F8CF823F63
:1009B00031F40E94AA04819580939F020895833F99
:1009C00019F40E94AA04F8CF893F29F40E94A804D0
:1009D0008093A10208958A3F21F40E94A804819582
:1009E000F7CF8B3F31F40E94A80481958093A20237
:1009F00008958C3F19F40E94A804F8CF843F31F485
:100A000080919E02816080939E020895853F21F42B
:100A100080919E028260F7CF863F21F480919E02F2
:100A20008460F1CF873F21F480919E028860EBCFF4
:100A3000883F21F480919E028061E5CF8D3F31F4A3
:100A400080916C02816080936C0208958E3F21F446
:100A500080916C028260F7CF8F3FB9F780916C0272
:100A60008460F1CF9C014FB7F89480916802909117
:100A70006902A0916A02B0916B024FBF821B930B77
:100A8000089520916F012223C9F02091850227FF4C
:100A900015C0E62FE695E695E695EE31D8F4E80F19
:100AA000F92FF11D677021E030E001C0220F6A9537
:100AB000EAF720958281282322830895FC0132964B
:100AC00008962191621303C0DF0111971C92E81769
:100AD000F907B9F7089520916F012223C1F0209101
:100AE000850227FF14C0E62FE695E695E695EE31E0
:100AF000F8F4E80FF92FF11D677021E030E001C034
:100B0000220F6A95EAF78281822B82830895FC0185
:100B100032962FEF30E04191641751F02F3F19F4D6
:100B2000411101C0232F3F5F3630A9F72F3F09F451
:100B30000895820F911D27FD9A95FC016283089507
:100B400080916302811110926302089580959091C3
:100B500062029823909362020895809590916102B9
:100B600098239093610208958091610290916202AE
:100B7000892B90916002892B8093B601909163023A
:100B80009923A1F0892B8093B60180916F0188236E
:100B900041F18091850287FF24C08EE1E8EBF1E00E
:100BA00090E0815000F591110E94A005E09187022C
:100BB000F09188023097E1F080916F01882359F01D
:100BC0008091850287FF07C08091B6018093B701AD
:100BD00085E08093B6010280F381E02D86EB91E001
:100BE000099486E0DBCF21912223D9F29F5FD9CFF0
:100BF0000895E92FEE0FE90FEE0F8E0F982F9770E3
:100C000086958695869525E0829FF0011124E85D02
:100C1000FD4F50E040E080E0219130E0092E02C01D
:100C2000369527950A94E2F721703327042E01C0E8
:100C3000220F0A94EAF7822B4F5F5F4F4530510530
:100C400059F70895E92FEE0FE90FEE0F8E0F982F49
:100C5000977041E001C0440F9A95EAF78695869512
:100C6000869595E0899FF0011124E85DFD4F30E005
:100C700020E070E05191DF011197CB01022E02C0FC
:100C8000969587950A94E2F781708195852784234C
:100C900085278C932F5F3F4F2530310559F70895F5
:100CA000809127029091F601981301C008958F5FFB
:100CB0008770FACF882321F00E94A6050C94B40512
:100CC0000895882339F090916202982B90936202E4
:100CD0000C94B4050895882321F00E94AD050C946E
:100CE000B4050895882339F090916102982B909370
:100CF00061020C94B40508952091E7013091E80158
:100D00002817390771F09093E8018093E701E0918B
:100D10008702F0918802309721F00084F185E02D60
:100D2000099408952091E5013091E60128173907CB
:100D300071F09093E6018093E501E0918702F091D4
:100D40008802309721F00680F781E02D09940895FC
:100D5000E0918702F0918802309721F00190F081B4
:100D6000E02D099480E00895CF93DF93EC0181E0BA
:100D7000898B809161029F81892B80936102809190
:100D800062029885892B809362020E94B405EA81F1
:100D9000FB81309739F06C897D89CE010696DF9111
:100DA000CF910994DF91CF910895EF92FF920F9325
:100DB0001F93CF93DF93EC018A85811134C0EB80C0
:100DC000FC8087E5F81A26E12E9DC0012F9D900D2D
:100DD0001124DC01AA5FBE4F1496ED91FC9115978A
:100DE000309731F054966D917C91845F9E4F0995B8
:100DF00086E18E9D80018F9D100D11240A5F1E4F8C
:100E0000F80187810E94AD05F80180850E94A60542
:100E10000E94B405188219861B861E821D821092BC
:100E2000EA011092E901DF91CF911F910F91FF909C
:100E3000EF9008959091850292FF06C0282F2871A7
:100E40002830F9F4877F846093FF06C0282F28712B
:100E50002831F1F4877E84612091860220FF06C04C
:100E6000382F38713830D9F4877F816021FF06C070
:100E7000282F28712831D1F4877E816194FD877EE7
:100E80000895282F24712430F9F68B7F8860DCCFF9
:100E9000282F2471243101F78B7E8861DDCF382F14
:100EA0003171313019F78E7F8860E0CF282F2171A2
:100EB000213121F78E7E8861E1CFCF93DF93972F89
:100EC00070E026E0929F600D711D1124FB0134E556
:100ED000839FE00DF11D1124EE0FFF1FEA5BFD4F14
:100EE000C591D491CE01C238D105B9F1E8F5C1332D
:100EF000D10509F499C050F5C932D10509F48DC066
:100F0000CA32D10509F497C0C11521E5D20708F00E
:100F1000BFC0C11530E5D30708F016C1C83ED105E2
:100F200008F09DC0C03ED10568F5C83AD10508F06B
:100F300089C0C53AD10508F0FFC0C130D10511F113
:100F4000209709F443C02497E8F440C0C533D10585
:100F500009F45CC0C933D105B9F62091850223702C
:100F600089F080EE90E00EC0C33ED10591F168F4A7
:100F7000C03ED105F9F0C23ED10531F6209185027F
:100F800022FD20C0DF91CF910895C63ED10561F1C9
:100F9000C73ED10581F1C43ED10509F0B5CF2091FE
:100FA000860221FFEFCF8091850284FD0FC087EE7E
:100FB00090E0E8CF2091850220FD12C13091860299
:100FC00030FFE0CF83EE90E024FFDCCF90E080E0C4
:100FD000D9CF2091850222FD06C13091860230FDD5
:100FE000C0CF24FFCFCFF2CF2091850223FFCACFFD
:100FF00024FDECCFDCCF2091850223FDF7C030919A
:10100000860231FFEECF84EE90E0BCCF20918502C6
:1010100025FFB8CF89E290E0B5CF2091850225FF6A
:10102000B1CF85E390E0AECF2091850226FFAACF15
:101030008AE290E0A7CF2091850226FFA3CF81E32B
:1010400090E0A0CFCF3BD10508F6C85AD0E0CC0F36
:10105000DD1FC858DE4F88819981946493CFC115F4
:1010600020E2D20760F4C11531E0D30708F08ACF3F
:10107000CE019065C03FD10508F084CFA7CFC11540
:1010800080E4D80708F4A2CFCE019F70906A7ACF8F
:10109000C11595E5D90710F5C11524E5D20708F06B
:1010A00088C0C11533E5D30708F06FC0C11582E5CC
:1010B000D80708F465C09E012370332781E090E0D3
:1010C00002C0880F991F2A95E2F7C695C69520E2BF
:1010D000C29FE00111248C2B9D2B50C0C11599E5B6
:1010E000D907A0F4C11528E5D20708F067C0C115DB
:1010F00036E5D30708F06ACF8C2F0E941A0790E0DC
:10110000982F882788279F7190623CCFC1158AE568
:10111000D80708F458C0CE0190568115904208F0C7
:1011200055CF8D2F8F710E941A0790E0982F882736
:1011300088279F718C2BE8CFC55AD0E0CB58DE4F63
:10114000888190E090641ECF9E01E4E0369527955B
:10115000EA95E1F723708C2F86958695837030E2AF
:10116000839FC0011124922BC37021E030E002C0A4
:10117000220F331FCA95E2F7822B932B9C6802CF74
:101180009C2F8827816F906AFDCE9E0123703327A4
:1011900081E090E002C0880F991F2A95E2F7C6957A
:1011A000C69530E2C39FE00111248C2B9D2B9A68D9
:1011B000E9CE9C2F8827846F906AE4CE9C2F8827E5
:1011C000806F906ADFCE8C2F8F700E941A0734E0F8
:1011D000D695C7953A95E1F7CF709C2F9069D2CEFE
:1011E00089E390E0CFCE82EE90E0CCCE86EE90E028
:1011F000C9CEBF92CF92DF92EF92FF920F931F93CF
:10120000CF93DF938C01C0908102D0908202E09056
:101210008302F09084028091640290916502A09113
:101220006602B0916702C82AD92AEA2AFB2ACFE1CE
:10123000D0E0BC2ED701C6010C2E04C0B695A795F0
:10124000979587950A94D2F780FD0EC0219788F76D
:10125000B12C8B2DDF91CF911F910F91FF90EF90CB
:10126000DF90CF90BF900895B8018C2F0E945D074A
:10127000019761F3EECFCF93DF93EC010E94F90861
:10128000BE01DF91CF910C945D070E943B09292F8D
:101290002F7092959F7092509E3078F4E92FF0E075
:1012A000E85DF84D0C94D722803F19F020F4883E79
:1012B00020F481E00895843FE1F380E00895883EC2
:1012C000C0F3813FD1F7F5CF822F8695869586951D
:1012D00008959C013A9521153F4138F491FF03C0D0
:1012E00082E0FB01099480E0FCCF0895FC0180813D
:1012F000813041F49185911114C09285992389F030
:1013000082E00895823041F48185811107C0828591
:10131000811106C083E0089586E0089585E0089570
:1013200084E0089527982F98089526982E98089578
:1013300025982D98089556985E980895279A2F9A83
:101340000895269A2E9A0895259A2D9A0895CF9257
:10135000DF92EF92FF92CF936B017C01C701AA2726
:10136000BB27C0E10097A105B10519F4D701CB0156
:10137000C0E0492F5A2F6B2F772741155105610582
:10138000710519F0C85FDB01CA01AC01BD01E4E0E1
:101390007695679557954795EA95D1F7411551058B
:1013A0006105710519F0CC5FDB01CA01AC01BD011B
:1013B00032E076956795579547953A95D1F741155F
:1013C00051056105710519F0CE5FDB01CA01B695C3
:1013D000A79597958795892B8A2B8B2B09F0CF5F43
:1013E0000E949B090E9498090E9495090E949209F7
:1013F000C150C73040F4EC2FF0E0EA5CF84D0C949B
:10140000D7220E94A409C701B601CF91FF90EF90A7
:10141000DF90CF9008950E94A4090E94A109F3CF04
:101420000E94A4090E949E09EECF0E94A4090E9476
:10143000A109F8CF209828982198299822982A98CD
:1014400023982B9852985A9853985B983E984698B0
:1014500008958098889A8198899A84988C9A85981A
:101460008D9A86988E9A87988F9A0895CF9384E064
:1014700090E00E941423C82F81E290E00E94142380
:10148000982F8C2FCF910895CF93DF9300D00F9298
:10149000CDB7DEB79091D802943019F589837B835C
:1014A0006A8383E08093E9008FEF9091E800815098
:1014B00095FD06C095ED9A95F1F700008111F5CFE5
:1014C0008091E80085FF0DC050E040E063E070E0EF
:1014D000CE0101960E94E8028091E8008E77809309
:1014E000E8000F900F900F90DF91CF910895BC010D
:1014F00084E00C94440ABC0183E00C94440A9C01EF
:1015000082E08093E9009FEF8091E800915085FD93
:1015100006C085ED8A95F1F700009111F5CF809115
:10152000E80085FF0CC050E040E065E070E0C901D4
:101530000E94E8028091E8008E778093E800089589
:10154000CF93DF93EC0180916F018823B1F18091FB
:10155000850287FF32C060E283E08093E9008FEF6D
:101560009091E800815095FD06C095ED9A95F1F7B0
:1015700000008111F5CF8091E80085FF1BC08091AC
:101580006F0170E050E040E0811104C050E040E0A5
:1015900068E070E0CE010E94E8028091E8008E775A
:1015A0008093E80080E2FE01A6EBB2E001900D928C
:1015B0008A95E1F7DF91CF91089568E081E0CDCF82
:1015C000EF92FF920F931F93CF93DF930E949B099B
:1015D0000E9498090E9495090E94920988E8E82EC5
:1015E000F12C8FEF90E0F701918380830AE810E0FF
:1015F000F80191838083CCE8D0E0998388830E94AE
:10160000A409FFEF20E782E0F15020408040E1F79D
:1016100000C000000E94A1099FEFE0E7F2E09150B6
:10162000E040F040E1F700C000000E949E092FEF6B
:1016300080E792E0215080409040E1F700C0000038
:101640000E949809EFEFF0E722E0E150F0402040DF
:10165000E1F700C000000E9495098FEF90E7E2E0FB
:1016600081509040E040E1F700C000000E949209E4
:1016700080916F028770FFEF8F9FC00111249595B5
:101680008795959587959927F70191838083F80130
:1016900091838083998388830E949B090E94980983
:1016A0000E949509DF91CF911F910F91FF90EF90CC
:1016B0000C9492096FEE7EEF90E080E00E9446234A
:1016C00060E082E090E00E94282360E083E090E008
:1016D0000E94282310926402109265021092660202
:1016E0001092670260E084E090E00E94282360E0AE
:1016F00081E290E00E94282360E085E090E00E9473
:10170000282360E086E090E00E9428236FEF87E0C6
:1017100090E00E94282340E050E0BA0188E090E089
:101720000E943A2360E08DE090E00E94282340E090
:1017300050E0BA0188E190E00E943A2360E087E13E
:1017400090E00E94282340E050E0BA018CE190E054
:101750000E943A2360E080E290E00E94282340E06B
:1017600050E0BA0188E190E00E943A2310926F02A3
:1017700010927002109271021092720284E08061E5
:1017800080936F0240916F025091700260917102DC
:10179000709172028FE090E00E943A2340E050E0A6
:1017A000BA0183E190E00C943A23CF93C82F87309D
:1017B00070F58091630190916401892B89F564E64D
:1017C00070E080E40E94FC219093640180936301A7
:1017D000892BD1F464E670E082E10E945822909354
:1017E000640180936301892B79F481E090E001C06A
:1017F000880FCA95EAF764E670E080950E94582247
:101800009093640180936301CF910C94AB228A3052
:10181000B9F040F4883071F0893079F0209A289836
:10182000CF9108958C3091F070F08D30B9F73E9AD9
:101830004698F6CF219A2998F3CF229A2A98F0CF8A
:10184000239A2B98EDCF529A5A98EACF539A5B98E5
:10185000E7CF80E290E090936401809363018091F0
:10186000D60181110EC00E94F62181E08093D6013D
:101870002FEF83ED90E3215080409040E1F700C0CE
:10188000000064E670E080E40E94FC219093640113
:1018900080936301892B09F04EC064E670E080E01C
:1018A0000E9458229093640180936301892B09F070
:1018B00042C064E670E080E00E9458229093640188
:1018C00080936301892BB9F564E670E08FE30E9491
:1018D00058229093640180936301892B61F50E94E3
:1018E000AB2264E670E080E40E94FC2190936401E6
:1018F00080936301892BF9F464E670E08CE00E9428
:1019000058229093640180936301892BA1F464E6CB
:1019100070E080E00E9458229093640180936301FC
:10192000892B49F464E670E08FE30E94582290937B
:101930006401809363010E94AB228091630108954A
:10194000CF93873050F58091630190916401C0E09E
:10195000892B71F464E670E081E40E94FC2190938D
:10196000640180936301892B31F0C0E00E94AB22B7
:101970008C2FCF91089584E690E00E94872297FFF4
:1019800005C09093640180936301EFCFC82FC09589
:101990001092640110926301E9CFCFB18FB18695A7
:1019A00086958C73C3708C2BC82FC095E1CF1F9286
:1019B0000F920FB60F9211242F933F934F935F9383
:1019C0006F937F938F939F93AF93BF93EF93FF9307
:1019D0008091E10082FF09C08091E20082FF05C092
:1019E0008091E1008B7F8093E1008091DA0080FF9D
:1019F00024C08091D80080FF20C08091DA008E7FC3
:101A00008093DA008091D90080FF9BC080E189BD7E
:101A100082E189BD09B400FEFDCF81E08093D80248
:101A20008091B302811109C00E9498020E94630351
:101A30008091E20084608093E2008091E10080FF69
:101A400017C08091E20080FF13C08091E2008E7F7A
:101A50008093E2008091E20080618093E2008091B7
:101A6000D80080628093D80019BC85E08093D802AA
:101A70008091E10084FF29C08091E20084FF25C0AD
:101A800080E189BD82E189BD89B5982F917080FF81
:101A9000FBCF8091D8008F7D8093D8008091E100AA
:101AA0008F7E8093E1008091E2008F7E8093E20040
:101AB0008091E20081608093E2008091D9028823C6
:101AC00009F445C084E08093D8028091E10083FF4F
:101AD00027C08091E20083FF23C08091E100877FCF
:101AE0008093E10082E08093D8021092D902809125
:101AF000E1008E7F8093E1008091E2008E7F8093F1
:101B0000E2008091E20080618093E20042E060E0C8
:101B100080E00E9431038091F00088608093F000A3
:101B2000FF91EF91BF91AF919F918F917F916F91B5
:101B30005F914F913F912F910F900FBE0F901F908B
:101B4000189519BC1092D8021092B30276CF8091EA
:101B5000E30087FD93E09093D802B7CF78941F926B
:101B60001FB61F9211248F939F93AF93BF938091C1
:101B7000680290916902A0916A02B0916B0201968D
:101B8000A11DB11D8093680290936902A0936A021F
:101B9000B0936B02BF91AF919F918F911F901FBE29
:101BA0001F9018952FB7F894809168029091690260
:101BB000A0916A02B0916B022FBF08950E94D20DCE
:101BC0009C0190919F028091A002982B21F030936C
:101BD0009D0220939C029091A1028091A202982BD9
:101BE00021F030939A0220939902E0918702F091BC
:101BF0008802309731F00480F581E02D8EE992E083
:101C00000994089510926202109260020E94B40535
:101C100085E0EEE9F2E0DF011D928A95E9F7109286
:101C20009B021092980210926C020E94DE0D90E0CE
:101C300080E00E94920690E080E00C947C060E9476
:101C4000A70960938102709382028093830290932C
:101C500084020C94020E0F931F9341E050E060E069
:101C600070E004C0440F551F661F771F8A95D2F796
:101C7000CB01BA0160957095809590950091810295
:101C8000109182022091830230918402602371239B
:101C9000822393231F910F910C941F0E90915F024A
:101CA0008095892380935F02282F277071F4282F55
:101CB000082E000C330B9217130639F08595859585
:101CC00085950E942B0E10925F0208950F931F932B
:101CD00041E050E060E070E004C0440F551F661F13
:101CE000771F8A95D2F78091810290918202A0910C
:101CF0008302B09184028A019B01082B192B2A2BA5
:101D00003B2BC901B8011F910F910C941F0E6093DA
:101D100064027093650280936602909367020C944C
:101D2000020E1092610280916F01E8EBF1E08823CE
:101D300059F08091850287FF07C08EE1DF011D9277
:101D40008A95E9F70C94020E86E0F8CF1F93CF93A3
:101D5000DF93CDB7DEB7AA970FB6F894DEBF0FBEFC
:101D6000CDBF8AED92E02091F100DC012D93CD01F1
:101D7000B2E0823E9B07B9F78091DB02833009F421
:101D800071C0B8F4813009F448C0823009F4B2C09F
:101D90008091E80083FF83C28091DA029091DB0298
:101DA0009A3008F07CC2E92FF0E0E35CF84D0C9427
:101DB000D7228A3009F48DC08B3009F470C0893085
:101DC00039F78091DA02813219F78091DE02909121
:101DD000DF02009711F00297D9F68091E800877F23
:101DE0008093E8008091E80082FF37C09091F30073
:101DF0008091F200029729F48091F1008B7F81306D
:101E000021F48091F1008093B5028091E8008B77F6
:101E10008093E8000E941203BBCF8091DA02813ADE
:101E200009F0B6CF8091E800877F8093E800809129
:101E3000DE029091DF02892B61F460E286EB92E092
:101E400070E00E94C4038091E8008B778093E800E3
:101E50009FCF60E090E080E0F3CF8091D8028111C5
:101E6000C1CF96CF8091DA02813A09F091CF80916B
:101E7000DE029091DF02892B09F08ACF8091E80081
:101E8000877F8093E8008091E80080FFFCCF8091FD
:101E90006F018093F1008091E8008E77B9CF809137
:101EA000DA02813209F074CF8091DE029091DF0274
:101EB000892B09F06DCF8091E800877F8093E8003F
:101EC0000E9412038091DC0280936F010E94910EA8
:101ED0005FCF8091DA02813209F05ACF8091E80019
:101EE000877F8093E8000E9412038091DD02809337
:101EF000B4024ECF8091DA02813A09F049CF809145
:101F0000E800877F8093E8008091E80080FFFCCFA5
:101F10008091B402BECF803899F0823809F0BFC1F9
:101F20008091DE028F70873008F0B9C18093E9009C
:101F30008091EB0085FB882780F91092E90006C0AC
:101F40008091D6029091D702911182609091E80021
:101F5000977F9093E8008093F1001092F1008091B8
:101F6000E8008E7798C1882309F486C1823009F091
:101F700096C18091DC02811189C18091DE028F704F
:101F80002FEF280F263008F08AC18093E9002091B6
:101F9000EB0020FF7BC1933031F48091EB00806235
:101FA0008093EB0073C19091EB0090619093EB00F4
:101FB00021E030E001C0220F8A95EAF72093EA0081
:101FC0001092EA008091EB008860EACF811167C12E
:101FD0001091DC021F778091E3008078812B809341
:101FE000E3008091E800877F8093E8000E9412035D
:101FF0008091E80080FFFCCF8091E30080688093AF
:10200000E30082E0111183E08093D80248C1805838
:10201000823008F044C12091DC023091DD022C3D79
:10202000E3E03E07A1F583E08A838AE289834FB724
:10203000F894DE01139620E03EE051E2E32FF0E059
:1020400050935700E49120FF03C0E295EF703F5F8B
:10205000EF708E2F90E0EA30C0F0C7968D939D937D
:102060002F5F243159F74FBF8091E800877F80931D
:10207000E8006AE270E0CE0101960E94C4038091FC
:10208000E8008B778093E8000AC1C096E7CF809183
:10209000DE029091DF02432F55274330510509F4AA
:1020A0004AC078F54130510509F47AC084E590E0E2
:1020B000EEE3F4E04230510509F0F1C02091E80070
:1020C000277F2093E8002091E0023091E1028217FF
:1020D000930708F49C0140E02115310509F065C023
:1020E000411163C08091E80082FDC9CF8091D80280
:1020F000882329F2853019F28091E80083FFF2CF1E
:10210000BECF4132510509F43CC04232510509F0BD
:10211000C6C08330910508F0C2C0FC01EE0FFF1F5E
:10212000E755FE4F0190F081E02D8A559E4FDC016E
:102130008C9190E01AC0332721303105D1F0211560
:10214000310561F02230310509F0A9C0E4EAF4E07C
:10215000E4918E2F90E0E4EAF4E007C0EEEEF4E0C4
:10216000E4918E2F90E0EEEEF4E0009709F497C032
:10217000A5CFECEBF4E0E4918E2F90E0ECEBF4E0F3
:10218000F4CF8330910508F08AC0880F991FFC01B5
:10219000E155FE4F0190F081E02D89E090E08ECF77
:1021A00082E190E0E2E9F4E089CF8091D8028823CF
:1021B00009F465CF853009F462CF8091E80083FD92
:1021C0005ECF8091E80082FD8DCF8091E80080FF96
:1021D00083CF9091F3008091F2002115310519F021
:1021E0008830910550F041E0089709F040E0809177
:1021F000E8008E778093E8006FCF44914093F10020
:102200003196215031090196E8CF803809F047C056
:102210008091E800877F8093E8008091D9028093C5
:10222000F1009DCE81113BC01091DC021230B8F557
:102230008091E800877F8093E8001093D9020E9484
:102240001203112311F084E005C08091E30087FDA3
:10225000FACF81E08093D80242E061EC81E00E94F5
:10226000310342E061EC82E00E94310342E261EC22
:1022700083E00E94310313C08091DC02813079F445
:1022800081E0933009F080E08093D7021092E9005A
:102290008091E800877F8093E8000E94120380917C
:1022A000E80083FF0AC08091E800877F8093E80000
:1022B0008091EB0080628093EB00AA960FB6F894B1
:1022C000DEBF0FBECDBFDF91CF911F9108951F924A
:1022D0000F920FB60F9211242F933F934F935F935A
:1022E0006F937F938F939F93AF93BF93CF93DF931E
:1022F000EF93FF93D091E900DF708091EC00C82F3D
:10230000C17080FDC0E81092E9008091F000877FE5
:102310008093F00078940E94A60E1092E9008091BC
:10232000F00088608093F000CD2BCF70C093E9005F
:10233000FF91EF91DF91CF91BF91AF919F918F91DD
:102340007F916F915F914F913F912F910F900FBEB1
:102350000F901F901895882379F19CEF980F913A70
:1023600038F4682F86EB91E00E9441050C94B40587
:1023700090E2980F983050F4877091E001C0990F67
:102380008A95EAF7892F0E94AD05F0CF9BE5980F5B
:10239000933020F490E080E00C94920698E5980F3A
:1023A000973120F490E080E00C947C06803F20F090
:1023B0000E9425040C94DE0D0895CF93DF93EC0169
:1023C0000E94AB116AE576E0CE01DF91CF910C94CB
:1023D00069098FE39CE90197F1F700C00000809143
:1023E000DE01823079F028F4813039F01092DE017C
:1023F0000895833011F08530C9F787E290E00E949C
:10240000DD11F4CF87E292E0FACF8FE39CE90197E8
:10241000F1F700C000008091DC01823079F028F4EF
:10242000813039F01092DC010895833011F085304D
:10243000C9F786E290E00E94DD11F4CF86E292E0D7
:10244000FACF8FE39CE90197F1F700C0000080917B
:10245000DA01823079F028F4813039F01092DA0113
:102460000895833011F08530C9F787E390E00E942A
:10247000DD11F4CF87E392E0FACF8FE39CE9019777
:10248000F1F700C000008091D801823079F028F483
:10249000813039F01092D8010895833011F08530E1
:1024A000C9F786E390E00E94DD11F4CF86E392E065
:1024B000FACFCF93C82F882309F46EC08CEF8C0F0E
:1024C000813AB8F580916F01882311F180918502DE
:1024D00087FF1EC0EC2FE695E695E695F0E0EA54FE
:1024E000FE4F828190E04C2F477021E030E002C027
:1024F000220F331F4A95E2F782239323892B89F019
:102500006C2F86EB91E00E9441050E94B40509C042
:10251000E8EBF1E08191C81799F381E0EE3BF80711
:10252000C9F76C2F86EB91E00E946B05CF910C945C
:10253000B40580E28C0F883068F4C77021E030E089
:1025400001C0220FCA95EAF780916102822B809325
:102550006102ECCFEBE5EC0FE33040F4F0E0EB5838
:10256000FE4F808190E0CF910C949206E8E5EC0F4D
:10257000E73150F4F0E0EE0FFF1FE858FE4F808186
:102580009181CF910C947C06C03F30F08C2F0E943B
:10259000CA04CF910C94DE0DCF910895CF93C82F2C
:1025A0000E945912C93349F42FEF87EE93E021506E
:1025B00080409040E1F700C000008C2FCF910C9438
:1025C000AB110F931F93CF93DF93C62FD42F022FFE
:1025D000FC0182818823A1F06093E4020E94D20D65
:1025E0009093E3028093E202C77081E001C0880FFC
:1025F000CA95EAF7DF91CF911F910F910C94720663
:102600008091E402681335C08091E2029091E30268
:102610000E943205883C910560F510E21D0FCD1730
:10262000B9F080E28C0F883040F4C77081E001C0BF
:10263000880FCA95EAF70E946B06183048F481E0CB
:102640009D2F977001C0880F9A95EAF70E94720635
:10265000802F0E94CE12183098F4D77081E001C00C
:10266000880FDA95EAF7DF91CF911F910F910C94C3
:102670006B06C77081E001C0880FCA95EAF7F3CFF7
:10268000DF91CF911F910F9108950F931F93CF93D7
:10269000DF938C01EB018091620182FF2DC08B7F63
:1026A000809362018091ED012091EB013091EC016A
:1026B000AB01421B530B2091600130916101421725
:1026C000530778F40E945912809162018D7F8093A4
:1026D00062018091ED010E94AB1182E00E94A6058B
:1026E00015C0909162029260909362020E9459120A
:1026F000809162018260EBCF802F0E94AB118091AC
:10270000ED019091EE010817190739F30E94B40505
:10271000D093EC01C093EB01DF91CF911F910F910A
:102720000895CF93C82F61E676E00E9469098C2F47
:10273000CF910C945912CF93DF93EC010E94911327
:10274000CE01DF91CF910C94DD11CF93DF93EC019B
:102750008881833061F487E290E00E949B1387E2D6
:1027600090E00E949B1387E290E00E949B13888177
:10277000843030F087E290E0DF91CF910C949B138E
:10278000DF91CF910895CF93DF93EC01888183305F
:1027900061F486E290E00E949B1386E290E00E9442
:1027A0009B1386E290E00E949B138881843030F076
:1027B00086E290E0DF91CF910C949B13DF91CF9153
:1027C0000895CF93DF93EC018881833061F487E330
:1027D00090E00E949B1387E390E00E949B1387E3A5
:1027E00090E00E949B138881843030F087E390E072
:1027F000DF91CF910C949B13DF91CF910895CF93EC
:10280000DF93EC018881833061F486E390E00E94DD
:102810009B1386E390E00E949B1386E390E00E9466
:102820009B138881843030F086E390E0DF91CF9174
:102830000C949B13DF91CF9108950E9476098093A9
:10284000DE01823049F018F4813071F00895833050
:1028500039F0853061F0089587E292E00C9491138D
:1028600087E290E00E94911387E290E0F7CF87E241
:1028700090E00E949B13F8CF0E9476098093DC01C0
:10288000823049F018F4813071F00895833039F0C6
:10289000853061F0089586E292E00C94911386E20F
:1028A00090E00E94911386E290E0F7CF86E290E0FC
:1028B0000E949B13F8CF0E9476098093DA01823040
:1028C00049F018F4813071F00895833039F0853083
:1028D00061F0089587E392E00C94911387E390E010
:1028E0000E94911387E390E0F7CF87E390E00E9486
:1028F0009B13F8CF0E9476098093D801823049F06B
:1029000018F4813071F00895833039F0853061F02A
:10291000089586E392E00C94911386E390E00E9480
:10292000911386E390E0F7CF86E390E00E949B133B
:10293000F8CF4F925F926F927F928F929F92AF9259
:10294000BF92CF92DF92EF92FF920F931F93CF939C
:10295000DF93CDB7DEB728970FB6F894DEBF0FBE72
:10296000CDBF7C01DC0113968D919C911497892B2E
:1029700041F01C911196DC90812F8D218F3F09F041
:102980005DC628960FB6F894DEBF0FBECDBFDF91AF
:10299000CF911F910F91FF90EF90DF90CF90BF905C
:1029A000AF909F908F907F906F905F904F90089521
:1029B0000E94F908082F682F89819A810E942206B7
:1029C000E12FF0E0B6E0DB9EE00DF11D112424E5DF
:1029D000029FE00DF11D1124EE0FFF1FEA5BFD4F7A
:1029E00005911491D70112968C918111F0C00A3291
:1029F000BDE51B07F1F5D70112968C918823C9F12B
:102A000080916F0291E0980F9770887F953008F45D
:102A1000892B80936F0280916F028770BFEF8B9F2D
:102A2000C001112495958795959587959927909341
:102A300089008093880090938B0080938A00909304
:102A40008D0080938C0040916F02509170026091D4
:102A50007102709172028FE090E00E943A236091BF
:102A600081027091820280918302909184020E947F
:102A7000A709C80197558F3F910511F008F048C08C
:102A800020915E0130915F012817390724F490935B
:102A90005F0180935E01F701228136E1389F50018A
:102AA000399FB00C1124C5018A5F9E4F6C01DC0177
:102AB00050962C935097928116968C911697992345
:102AC00009F4C4C01A961C930E9319978F5F16963B
:102AD0008C930E94D20DF6019687858780916302C0
:102AE00087838091620290916102892B8087019097
:102AF000F081E02D309741F0D60154966D917C9194
:102B0000C501845F9E4F09951093EA010093E90186
:102B10000E94D20D6C01D70112968C91882311F17D
:102B20008091620182FF05C0B60190E080E00E94C2
:102B3000451382E00E94A6050931BCE51B0709F494
:102B40000AC108F091C00731FCE51F0709F4F9C07C
:102B50008091600190916101059708312CE5120781
:102B600009F4F4C00B32110539F008F09BC1C8011B
:102B70000497849708F0A1C1D70112968C918823FD
:102B800009F4B1C18091620180FF8DC09091610212
:102B9000911189C01093EE010093ED01D092EC01E8
:102BA000C092EB0184608093620182E00E944E0E2D
:102BB00080915F02877009F4E4CED70112968C9160
:102BC000882309F4DECE82E00E944E0EDACE809198
:102BD0005E0190915F01019609F409CF76E0C72E5E
:102BE00071E0D72EB12CA12C7724739480915E01D3
:102BF00090915F018A159B050CF4F9CED6011696CB
:102C00008C9116978823D9F019968D919C918017F5
:102C1000910739F48091E9019091EA0180179107B9
:102C200071F0F6017786148703878189811103C0CB
:102C3000C6010E94B406C60106960E94D506FFEFA3
:102C4000AF1ABF0A26E1C20ED11CD0CF882309F4E7
:102C50005FCFF6018189882309F45ACFC501845FCB
:102C60009E4F0E94D50654CF0B313CE51307B1F0BF
:102C700070F0809162018E7F0C319CE5190709F09C
:102C800071CF8093620182E00E94A6050CC09091F2
:102C90006201892F8E7F90FF8160F3CF8091620166
:102CA000816080936201F7018281882309F4D9C48D
:102CB0001092E4020230FCE51F0708F410C206314E
:102CC0002CE5120738F098012B5F3C452730310581
:102CD00008F005C20E94360A90938602809385020E
:102CE0000F303CE5130709F4DBC108F058C1083088
:102CF0009CE5190709F4BEC108F02BC10430BCE5FE
:102D00001B0709F4A7C108F017C10230FCE51F0733
:102D100009F49CC180918502826003301C4509F44E
:102D20002AC1609185021091860284E090E00E94A1
:102D30002823612F81E290E00E9428230E94910EB7
:102D400037CF809160019091610105969093610168
:102D500080936001A8CF809161018F938091600181
:102D60008F9380E791E09F938F931F9288E08F93DA
:102D70009F928F920E9487240FB6F894DEBF0FBEF9
:102D8000CDBF64015AE0452EF6012081222309F4CB
:102D90008ACF213009F047C091818281913049F476
:102DA000F2E0CF0ED11C0E94CE129FEFC91AD90AB1
:102DB000EBCF923031F422E0C20ED11C0E945912A6
:102DC000F4CF933031F432E0C30ED11C0E94AB112A
:102DD000ECCF943021F08FEFC81AD80AE6CF92E0FA
:102DE000C90ED11C30E020E0A6014F5F5F4F805339
:102DF000990B8A30910550F021503109B0F2EFE97A
:102E0000FFE03197F1F700C00000F6CF429EB0011D
:102E1000439E700D11249C01260F371FD601119679
:102E20008C916A01E1CFE22FF0E0EA53FE4F54901B
:102E3000822F86958695869590E0FC01EA54FE4F98
:102E400064902770712C022E02C0759467940A94C6
:102E5000E2F731E063227724FC01EA55FE4FA490AB
:102E6000B12C02C0B594A7942A95E2F781E0A8227C
:102E7000BB246114710419F081EE0E945912A1144F
:102E8000B10419F086EE0E945912852D0E94CE12CF
:102E9000AB2819F086EE0E94AB11672809F485CFA4
:102EA00081EE94CF0D32110540F00933110508F47D
:102EB00063CE0436110509F45FCE043FBCE51B0761
:102EC00061F1B0F4093DFCE51F0719F10A3D2CE55D
:102ED000120779F1083D3CE5130709F0E4CE26E23C
:102EE00041EE61EE12C0B601C8010E94451360CEEA
:102EF000063F8CE51807C9F0A0F027E245EE66EE24
:102F0000073FACE51A0709F0CECEC7010E94E112D7
:102F10004FCE27E245EE65EEF8CF26E241EE60EEB9
:102F2000F4CF27E245EE64EEF0CF26E241EE62EE0A
:102F3000ECCF28E241E0EFCF80918502806106303E
:102F40003CE51307C1F008F489C0809185028062D6
:102F500012C00B309CE5190709F49AC078F40930C7
:102F6000BCE51B0709F48AC0809185028C600A3099
:102F70001C4509F0D6CE80938502D3CE8091850280
:102F80008B7F0D30FCE51F07B1F3809185028D7FAB
:102F90000E301C4580F380918502877FECCF0B3F7C
:102FA0003CE5130709F45EC048F502319CE51907BA
:102FB00009F47EC060F40031BCE51B0709F474C05D
:102FC000809185028F7B01311C45A9F2AACE043184
:102FD000FCE51F0709F47AC008F470C005311C45F0
:102FE00009F09FCE8091850282FB992790F921E01C
:102FF000922790FB82F990FB83F9BDCF0E3F8CE5C1
:10300000180709F449C070F40C3FACE51A0771F1D8
:10301000809186028E7F0D3F1C4509F082CE809301
:1030200086027FCE0115EDE51E0709F44BC060F165
:1030300001301D4509F075CE80918602982F90953C
:1030400091708E7F892B90FB81F9E9CF8091850269
:10305000816091CF8091850284608DCF80918502BF
:10306000886089CF809186028160D9CF8091860265
:103070008260D5CF8091850280647DCF0E94910EC1
:1030800080918502806877CF809186028360C7CF68
:10309000809185028E7F6FCF809186028D7FBFCF1A
:1030A000809185028F7E67CF809185028F7D63CF6F
:1030B0000E94910E809185028F775DCF809185026D
:1030C000837F59CF809186028C7FA9CF0E94910E79
:1030D00090918502892F97FB87F980584CCF063154
:1030E0003CE5130709F0CAC2809161028A7A91E037
:1030F00009F490E09093EF0169E2811165E386EBBA
:1031000091E00E946B050E94B40552CD0E94910E81
:103110008FEF94E3ACE081509040A040E1F700C015
:103120000000F89481E08093E00080E28093D80072
:103130001092C900EFE1FEE43197F1F700C0000002
:103140001DBA109268001CBC10BE1FBA10927A0003
:1031500010926E0010926F00109271001092720027
:103160001092C9001092BC0014B817B81AB81DB854
:1031700010BA1092BC0015B818B81BB81EB811BA16
:103180000C94003F15CD0E945A0B12CDC8010E942D
:10319000F905D82E8AC2E12FEF70AE2E107F19F0FC
:1031A000A29420EFA222DD20C9F0AA2069F080E2DB
:1031B000800F883010F061100BC080916102A82A46
:1031C000A09261020E94B405802F0E94591215C07E
:1031D00080916202A82AA0926202F4CF802F0E94FE
:1031E000AB11AA2051F0005E8A2D083010F061105A
:1031F00041C00E94AD050E94B405AB2DA850BB0B89
:10320000149710F40E94A806CC20A9F080915F02C8
:1032100080FD11C0F70112828595859585950E94E4
:10322000660EC7010E94991480915F02859585956D
:1032300085950E942B0E85E0F701D40101900D9237
:103240008A95E1F789819A810E94F9059A81E9813D
:10325000F0E026E0929FE00DF11D112434E5839FFC
:10326000E00DF11D1124EE0FFF1FEA5BFD4F85916C
:10327000949187CB0E94A605BECFF12FFF707F2EC1
:10328000107F103219F0729490EF7922662041F08D
:1032900021E0621631F1DD2079F1AA2041F194CFCD
:1032A000DD2091F090916302892F8729A11003C03E
:1032B0000E947206A2CF31E0A312FACF981709F448
:1032C0009CCF8093630299CFA11006C00E94A005F5
:1032D000872D0E946B0691CF81E0A81609F48DCF4F
:1032E000F5CFDD2031F091E09A1508F486CF872DD7
:1032F000DFCFA11082CFECCFAA2051F3A9E36A124D
:1033000009C0BFEFE7EEF3E0B150E040F040E1F775
:1033100000C00000802F0E94AB116FCF812F8695D7
:103320008695837061F0813009F067CFC801937092
:10333000D11002C090E080E00E947C065ECFC80100
:103340009370D11002C090E080E00E94920655CFA9
:10335000802FDD2029F00E94CA040E94DE0D4DCF8F
:103360000E942504FACF812F837009F066C0D11026
:1033700044CF802F829586958770880F880F602FA5
:103380006F70462E512C712C612C082E04C0440CF9
:10339000551C661C771C0A94D2F740E050E0BA0135
:1033A00004FF0FC04FE050E060E070E004C0440F45
:1033B000551F661F771F8A95D2F7409550956095E7
:1033C0007095812F869586958370823019F1D8F497
:1033D00000916402109165022091660230916702AB
:1033E000813069F04429552966297729CB01BA0132
:1033F00060237123822393230E94870EFECE402AEE
:10340000512A622A732ACB01BA01642975298629B7
:103410009729F2CF4429552966297729009164021A
:10342000109165022091660230916702CB01BA01CA
:103430006027712782279327DFCF8695DD2011F043
:10344000812F8170882309F4D8CE802F82958695AC
:103450008770880F880F602F6F70462E512C712C4B
:10346000612C082E04C0440C551C661C771C0A9461
:10347000D2F740E050E0BA0104FF0FC04FE050E047
:1034800060E070E004C0440F551F661F771F8A95E7
:10349000D2F74095509560957095812F86958695C9
:1034A0008370823019F1D8F4009181021091820268
:1034B0002091830230918402813069F0442955299A
:1034C00066297729CB01BA016023712382239323D4
:1034D0000E941F0E92CE402A512A622A732ACB01E3
:1034E000BA016429752986299729F2CF44295529DB
:1034F000662977290091810210918202209183022E
:1035000030918402CB01BA0160277127822793276B
:10351000DFCF1F70DD2029F0812F0E94660E802FE3
:10352000C7CE802F0E946B06812F0E942B0E65CE86
:10353000802F22EF621609F44EC0261578F030EF86
:10354000631619F191EF691609F43DC0DD2009F405
:1035500065C0A11039CE812F8F713AC0A3EF6A16D2
:1035600009F43EC0B4EF6B12F1CFDD2009F44BC07B
:103570001F71812F0E94660EF8E01F9FC001112469
:10358000836080935F02812F23C0DD20B9F0A110FA
:1035900034CE1F7161E070E080E090E004C0660FFF
:1035A000771F881F991F1A95D2F7009181021091F9
:1035B00082022091830230918402A6CFE1E0EA15D5
:1035C00008F41BCEE6CF812F8F71DD2009F4ADCF3B
:1035D0000E94660E12CE812F8F71DD20C9F3A5CF18
:1035E00060E070E0CB01DD2009F472CF1F7161E073
:1035F00070E080E090E004C0660F771F881F991F7D
:103600001A95D2F765CF81E00E944E0E21E02A156F
:1036100008F0F3CD82E00E944E0EEFCDAA2059F0C3
:10362000893309F077CE3FEF87EE93E03150804049
:103630009040E1F76DCE812F8F7177CF85E0F70154
:10364000DE0111964D0101900D928A95E1F7F70187
:10365000228189819A812111ABC90E94F905082F25
:10366000AFC906311C4599F48091EF0169E28111DF
:1036700065E386EB91E00E94410545CD01152CE5FF
:10368000120709F443CD0F3D1C4509F47CCDF70129
:1036900000811181882309F479CDC8010E94F908BD
:1036A000D82E682FC8010E942206B8018D2D0E94D5
:1036B0005D078C01682ED7011596AC901597A294E2
:1036C0004FE0A4221296DC90D110109262028091F9
:1036D0005F02877099F0DD2089F0812F807F803430
:1036E00021F080E2800F883048F082E00E944E0E88
:1036F00080915F028770CC24C3948111C12CB12EBC
:10370000B2943FE0B322BBE0BB1508F476CDEB2DBD
:10371000F0E0E95BF84D0C94D7221F93CF93DF9331
:103720008091F501807FA9F48091F201882389F0CE
:1037300080912702D091F6016091F0017091F10122
:10374000A091F301B091F401C62FC72316E0D8135E
:1037500004C0DF91CF911F91089590E0109711F070
:10376000CF3F19F401968770F2CF189F9001199FEF
:10377000300D1124F901E950FE4F41814713F2CF7A
:1037800040814613EFCF42814111ECCF43815481F8
:103790004A1B5B0B483C510528F78091F5018F705F
:1037A00080618093F501F901E450FE4F80818F70B4
:1037B0008061808380EF91E00E949914DF91CF9126
:1037C0001F910C945006AF92BF92CF92DF92EF926E
:1037D000FF920F931F93CF93DF93CDB7DEB761971F
:1037E0000FB6F894DEBF0FBECDBF8C0185E0F801A7
:1037F000DE011D9601900D928A95E1F7F801808116
:103800009181E28020EFA22E21E0B22E6091F3019F
:103810007091F4016115710509F43EC13091F00118
:103820004091F101232F24232F3F09F435C1C38098
:10383000D480F090F201F601E61BF70BFF2009F4AB
:10384000FBC02091F501522F507FE83CF10508F0B4
:10385000BBC0511178C0FE2C491321C038131FC0C2
:10386000E1101DC02F7020612093F501C5010E9459
:1038700099148091F501F80185838F2D61960FB61B
:10388000F894DEBF0FBECDBFDF91CF911F910F9196
:10389000FF90EF90DF90CF90BF90AF900895CD282C
:1038A00029F0282F29232F3F09F014C120E0F22FFF
:1038B000F170DF2E20FF3DC0209127024091F601DC
:1038C00056E0241315C08D879E878D859E850E94A6
:1038D0003B09292F22952F702230F8F0243020F553
:1038E0009F70F9F0F8019581907FD9F4D12C1FC019
:1038F00030E0529FF001539FF00D1124E950FE4F2C
:103900006181961306C06081861303C06281E6124E
:1039100010C02F5F3F4F2770D4CF9F7011F08823C6
:1039200029F3805E883010F3C8010E949914FD2CA1
:10393000A4CFEE2009F4A1CF8091F501816080939E
:10394000F501F12C9ACF491312C0381310C0E110C1
:103950000EC0F8012583C8010E94991486E0F80181
:10396000A0EFB1E001900D928A95E1F786CF8D87A7
:103970009E878D859E850E944509882309F1EE204A
:10398000F9F08091F501803270F02091F0013091D2
:10399000F10138872F831986DB86CA868C87CE0192
:1039A00007960E94991486E0F801A0EFB1E001901B
:1039B0000D928A95E1F70E948D1BFF24F3945DCF51
:1039C000C8010E949914F9CF51110AC080EF91E00B
:1039D0000E94991486E0F50111928A95E9F7B1CF1A
:1039E00049130FC038130DC0E1100BC0F801258337
:1039F000C8010E94991486E0F50111928A95E9F7B1
:103A00003CCF8D879E878D859E850E9445098823A2
:103A1000B9F2EE20A9F28091F501803220F22091D6
:103A2000F0013091F1013A8329831B82DD82CC823F
:103A30008E83CE010196B5CFE83CF105E0F6FE2C71
:103A4000EE2009F4BDCF491316C0381314C080917D
:103A5000F50180FD83CF982F907F09F47FCFF80187
:103A60008583903F09F477CF982F907F905F8F7078
:103A7000892B858370CF8D879E878D859E850E943B
:103A80004509811190CF8091F50181608093F50106
:103A9000C8010E949914F1CEEE2009F491CF8D87D0
:103AA0009E878D859E850E944509F82E882309F4FE
:103AB00087CF86E0F801A0EFB1E001900D928A95E2
:103AC000E1F78091F0019091F1010E943B090E9481
:103AD0008D1BD3CE21E02E25EACE1F93CF93DF930B
:103AE000CDB7DEB767970FB6F894DEBF0FBECDBF78
:103AF0004B8B5C8B6D8B7E8B8F8B1A8A198A85E042
:103B0000FE017396DE011D9601900D928A95E1F7F4
:103B100086E0FE013D96DE01179601900D928A9592
:103B2000E1F7CE0107960E94E31B811112C086E0E7
:103B3000FE013796DE01119601900D928A95E1F70C
:103B40008A859B85892B29F08F81988589238F3FD2
:103B5000B1F516E0809127029091F60189131DC0FE
:103B600067960FB6F894DEBF0FBECDBFDF91CF9141
:103B70001F91089596E0929FD001939FB00D11245C
:103B8000A950BE4FFE01319601900D929A95E1F732
:103B90008093F6010E945006DCCF819FC001112462
:103BA00089509E4F0E94E31B8823D1F28091270207
:103BB00090E001968770992780932702CBCF2091C0
:103BC000F60130E0C90101968770992740912702DC
:103BD0004817190679F60E94910E1092F60110927C
:103BE000270286E0E0EFF1E0DF011D928A95E9F718
:103BF000B0CF8F929F92BF92CF92DF92EF92FF92BF
:103C00000F931F93CF93DF93809163019091640191
:103C1000892B91F08091DF018F5F8093DF0181110B
:103C20000BC00E94290C90E0909364018093630183
:103C3000892B11F40E94E00AE3E78E2EE2E09E2E2B
:103C4000740110E000E077E0C72EC00E802F0E94C4
:103C5000D50B8C2D0E94D50B802F0E94A00CE70164
:103C600099917E01D12C891729F0FE01319780832B
:103C7000DD24D3948C2D0E94A00CF7019681891726
:103C800009F47CC0868381E08D29182B0E941A0AD2
:103C90000F5F0730C1F60E94D20D6091E101709173
:103CA000E2019093E2018093E1012091E00130E094
:103CB000261B370B820F931F6BEF70E00E94AF2221
:103CC000E82E392F082F8093E001F090E401FF20C7
:103CD00009F49FC01092E401E0916D02F0916E0230
:103CE000AF01425F5F4F20E06BEFB62E6BEF70E0ED
:103CF000A191AB3FA1F0CA2ED12C8E2D932F0A1784
:103D000008F43EC08C199D09092E000CAA0BBB0BB0
:103D10004E97A105B105D0F1DF011197BC924E1766
:103D20005F0731F72093E401111102C0211173C024
:103D30001092E301A0916D02B0916E029091E401A6
:103D4000EAE8F2E048E952E080E03191E4012991AB
:103D50004E01321751F03C913B3FD1F40C93BF011F
:103D600061507109EB01288391E011964E175F07AE
:103D700061F79093E4018093E30151C080E084CF28
:103D8000DB01AC19BD098A0F9B1FBECF2F2DC7CFFA
:103D900081E0EBCFF89EF001F99EF00D1124EA5F6F
:103DA000FE4FC288D388C114D10419F428ECC22E66
:103DB000D12CF89EE001F99ED00D1124CA5FDE4F90
:103DC0008E818823B9F08D859E850E943205C816A4
:103DD000D90680F40F9D600111248989811105C0E5
:103DE000C6018A5F9E4F0E94B406C601845F9E4F43
:103DF0000E94D5060F5F802F90E020915E013091E8
:103E00005F012817390734F610C000E086E1F82E6C
:103E1000F2CF11118DCF8091E301811189CF809173
:103E20005E0190915F01019681F78091620182FFAE
:103E300017C00E94D20D2091EB013091EC01AC0132
:103E4000421B530B209160013091610142175307CF
:103E500038F0BC018091ED019091EE010E94451374
:103E6000812FDF91CF911F910F91FF90EF90DF9005
:103E7000CF90BF909F908F900895CDB7DEB72F97CA
:103E80000FB6F894DEBF0FBECDBF84B7877F84BF67
:103E90000FB6F894A89580916000886180936000C7
:103EA000109260000FBE80E890E00FB6F894809307
:103EB0006100909361000FBE85B7806885BF85B7AC
:103EC000806885BF0E9498020E9463038091E2008F
:103ED00084608093E20078948091D8028823A1F0D6
:103EE0001091E9001F709091EC00892F817090FD76
:103EF00080E8182B1092E9008091E80083FD0E9471
:103F0000A60E1F701093E90082E084BD93E095BD7A
:103F10009AEF97BD80936E000E94290C90E09093D9
:103F20006401809363010E941A0A0E94290AE3E750
:103F3000F2E081E892E0AAE8B2E011921D928E17B9
:103F40009F07D9F78EE090E00E945C2380936D027A
:103F500090936E02FC010E962BEF21938E179F0714
:103F6000E1F790E080E00E9422238F3E9E4F11F007
:103F70000E945A0B89EA8093800089E08093810037
:103F800024982C983F988AB18F7C8AB96E98479A6A
:103F90008BB180638BB9769A8FE090E00E941C23EE
:103FA00060936F027093700280937102909372021B
:103FB00067704FEF649FB0011124759567957595F3
:103FC00067957727709389006093880070938B00C2
:103FD00060938A0070938D0060938C000E94E00AC9
:103FE00090E080E00E9422238F3E9E4F11F00E94BD
:103FF0005A0B82E090E00E9414238093A4020E9456
:10400000360A909386028093850283E090E00E94B6
:104010001423682F70E090E080E00E94870E60918A
:1040200081027091820280918302909184020E94A9
:10403000A70985E691E0909388028093870298E132
:10404000E92EF12C28E9C22E22E0D22E8AE892E055
:104050003EE0B32EB80E80E4A82E8091D80200E195
:1040600012E1853009F446C10E94F91DE5EAF2E04B
:10407000AAE8B2E010E000E0302F8D9121912817DE
:1040800009F447C190E0992493942827422F4921AD
:1040900009F43AC19E833F83892191E009F490E0BD
:1040A00098870E94D20D8160782F9A8789874E81E8
:1040B0005F8168858A850E946D1DF801EB55FD4F73
:1040C00080819826908285E0EEE9F2E0DE0111968B
:1040D00001900D928A95E1F790909F028090A00246
:1040E0001091A1020091A20210929F021092A002D0
:1040F0001092A1021092A202892D882909F448C0C9
:1041000080919C0290919D020E9432059C019091A9
:104110009B02992309F43FC125313105C8F19F3F26
:1041200019F09F5F90939B02992059F00E94AA0476
:104130009FEF19140CF491E0899F802D1124809336
:104140009F02882059F00E94AA049FEF18140CF4D3
:1041500091E0899F802D11248093A00230919F02CD
:104160003323B1F02091A002222391F045EB3403D8
:10417000C0011124992309F4E3C090939F0245EBF9
:10418000240390011124332309F4DEC03093A002EC
:10419000812F802B09F448C08091990290919A0256
:1041A0000E9432059C0190919802992309F4EEC077
:1041B00021373105C8F19F3F19F09F5F9093980216
:1041C000112359F00E94A8049FEF11160CF491E0FE
:1041D000899F802D11248093A102002359F00E9411
:1041E000A8049FEF10160CF491E0899F802D1124F4
:1041F0008093A2023091A1023323B1F02091A20258
:10420000222391F045EB3403C0011124992309F4D2
:104210009FC09093A10245EB240390011124332306
:1042200009F49AC03093A20280919F029091A0025B
:10423000892B9091A102892B9091A202892B11F0D8
:104240000E94DE0D85E0FE013196AEE9B2E00190FC
:104250000D928A95E1F70E94A8069091A302891712
:1042600009F4FBCE0E94A8068093A302F4CE8091AD
:10427000D802843009F1109289020FB6F894A895FB
:10428000E09260000FBEA092600083B7817F8460DF
:1042900083BF83B7816083BF7894889583B78E7F0F
:1042A00083BF0FB6F894A8958091600088618093D1
:1042B0006000109260000FBE8091D7028823D1F079
:1042C0000E94290C90E090936401809363010E9406
:1042D0001A0A0E94290AEAE8F2E01192CE16DF06D5
:1042E000E1F70E94F91DEAE8F2E08191811138C0FE
:1042F000BE12FBCF8091D802853009F4B8CF0E945E
:10430000910E0E94A806B0CE9F5F990C963009F0DE
:10431000BDCE0F5F1F4F0E30110509F0ADCE8FEFF0
:104320008B878C871D860E94D20D8160782F9F8796
:104330008E874B855C856D858F850E946D1DC3CEF4
:1043400081E080939F021BCF81E08093A00220CF69
:1043500081E08093A1025FCF81E08093A20264CFCD
:1043600009BD19BD09B400FEFDCF8091D8008F7D35
:104370008093D8008091E00082608093E00080917B
:10438000E00081FDFCCF0E94910EB4CF25363105AF
:1043900008F013CF49CF232B09F0C3CEF9CE1F92DB
:1043A0001FB61F9211248F939F93AF93BF93809159
:1043B0008902811113C08091680290916902A091D5
:1043C0006A02B0916B024196A11DB11D80936802F3
:1043D00090936902A0936A02B0936B02BF91AF9170
:1043E0009F918F911F901FBE1F9018951092B9003A
:1043F0008CE08093B8000895EF92FF920F931F9383
:10440000CF93DF93182FEB011092BC0084EA8093C6
:10441000BC000E94D20D7C018091BC0087FF27C0A8
:104420008091B900887F883029F08091B900887F19
:104430008031D9F51093BB0084E88093BC000E94C2
:10444000D20D8C018091BC0087FF24C02091B9005F
:10445000287F90E080E02831B1F081E090E02034C6
:1044600011F490E080E09195819591090CC0CF3FC7
:10447000DC0791F20E94D20D8E199F098C179D07BF
:1044800058F28EEF9FEFDF91CF911F910F91FF9028
:10449000EF900895CF3FDC07A9F20E94D20D801B58
:1044A000910B8C179D0770F2ECCF8FEF9FEFEBCF46
:1044B0000F931F93CF93DF93EB018093BB0084E8AE
:1044C0008093BC000E94D20D8C018091BC0087FFBC
:1044D00011C02091B900287F81E090E0283211F4CA
:1044E00090E080E0919581959109DF91CF911F91A6
:1044F0000F910895CF3FDC0741F30E94D20D801B3E
:10450000910B8C179D0708F38EEF9FEFEECF0F9363
:104510001F93CF93DF93EC0184E88093BC000E944B
:10452000D20D8C018091BC0087FF08C08091BB0038
:1045300090E0DF91CF911F910F910895CF3FDC075D
:1045400089F30E94D20D801B910B8C179D0750F3AD
:104550008EEF9FEFEECF84E98093BC000895AA1BF5
:10456000BB1B51E107C0AA1FBB1FA617B70710F05E
:10457000A61BB70B881F991F5A95A9F78095909590
:10458000BC01CD01089597FB072E16F4009407D0C7
:1045900077FD09D00E94AF2207FC05D03EF490952C
:1045A00081959F4F0895709561957F4F0895EE0F07
:1045B000FF1F0590F491E02D09942F923F924F92A6
:1045C0005F926F927F928F929F92AF92BF92CF92A3
:1045D000DF92EF92FF920F931F93CF93DF93CDB7AC
:1045E000DEB7CA1BDB0B0FB6F894DEBF0FBECDBF24
:1045F00009942A88398848885F846E847D848C84F5
:104600009B84AA84B984C884DF80EE80FD800C81FD
:104610001B81AA81B981CE0FD11D0FB6F894DEBFE0
:104620000FBECDBFED010895F999FECF92BD81BDBA
:10463000F89A992780B50895A6E1B0E044E050E0EB
:104640000C944E23A8E1B0E042E050E00C944E23DD
:10465000262FF999FECF92BD81BDF89A019700B43B
:10466000021639F01FBA20BD0FB6F894FA9AF99ADB
:104670000FBE08950396272F0E9429230E94282306
:10468000252F0E942923242F0C9429230196272FBC
:104690000E9429230C942823DC01CB01FC01F99909
:1046A000FECF06C0F2BDE1BDF89A319600B40D927E
:1046B00041505040B8F708950F931F93CF93DF9365
:1046C0008230910510F482E090E0E091E702F091F1
:1046D000E80230E020E0B0E0A0E0309799F4211546
:1046E000310509F447C0281B390B24303105C0F5CA
:1046F0008A819B816115710571F1FB01938382832E
:10470000FE0111C040815181028113814817590770
:10471000F8F04817590799F4109761F012960C9326
:10472000129713961C933296CF01DF91CF911F9170
:104730000F9108950093E7021093E802F4CF21153A
:10474000310519F04217530718F49A01BD01EF0122
:10475000DF01F801C2CF9093E8028093E702D0CF47
:10476000FE01E20FF31F81939193225031093983A7
:104770002883DACF2091E5023091E602232B41F421
:1047800020910201309103013093E6022093E5026B
:1047900020910001309101012115310541F42DB71F
:1047A0003EB74091040150910501241B350B409107
:1047B000E5025091E6024217530708F0B5CF241BDB
:1047C000350B2817390708F4AFCFBC016E5F7F4F58
:1047D0002617370708F4A8CF640F751F7093E602F9
:1047E0006093E502FA01819391939ECFCF93DF937B
:1047F0000097E9F0FC01329713821282C091E70220
:10480000D091E802DE0130E020E02097A1F4208181
:104810003181820F931F2091E5023091E602281723
:10482000390709F067C0F093E602E093E502DF91F3
:10483000CF910895DA01AE17BF0708F040C0129675
:104840004D915C9113979D014115510599F7D9013F
:104850001396FC93EE9312974D915D91A40FB51FA3
:10486000EA17FB0779F4808191810296840F951FE6
:10487000D90111969C938E938281938113969C9378
:104880008E931297B0E0A0E08A819B810097B9F5E2
:10489000FE0181919191E80FF91F8091E5029091BD
:1048A000E6028E179F0719F6109761F51092E8023D
:1048B0001092E702D093E602C093E502B8CFB3832B
:1048C000A28340815181840F951FA817B90771F405
:1048D0004E5F5F4F8D919C911197480F591F5183E7
:1048E000408312968D919C9193838283211531058B
:1048F00009F0ADCFF093E802E093E70298CFDE0134
:10490000EC01C2CF13961C921E921297D3CFAEE049
:10491000B0E0EDE8F4E20C94EB220D891E898F895A
:10492000988D26E02C831A83098397FF02C080E0CC
:1049300090E801979E838D83AE01455E5F4F698D40
:104940007A8DCE0101960E94B7244D815E8157FD7C
:104950000AC02F813885421753070CF49A01020FC1
:10496000131FF80110822E96E4E00C940723ABE0AD
:10497000B0E0EDEBF4E20C94DD227C013B018A0116
:10498000FC0117821682838181FFB9C19AE0292E2A
:10499000CE0101965C01F7019381F30193FD8591AE
:1049A00093FF81913F01882309F446C1853239F490
:1049B00093FD859193FF81913F01853229F4B701E1
:1049C00090E00E949826E7CF912C412C512CFFE1DA
:1049D000F51538F08B3209F188F4803201F1833219
:1049E00021F157FC3AC020ED280F2A3040F556FE41
:1049F0001FC0929C200D1124922E06C08D3291F082
:104A0000803379F7689450F8F30193FD859193FF13
:104A100081913F018111DBCF20C0689451F86894E7
:104A200052F8F2CF689453F8EFCF689454F8ECCF73
:104A3000429C200D1124422E689455F8E5CF8E3209
:104A400029F456FCF9C0689456F8DECF8C3619F478
:104A5000689457F8D9CF8836B9F2982F9F7D95542E
:104A60009330C0F08336A1F18337C1F1833509F06B
:104A70005BC0F801C190D1908F01692D70E056FCA8
:104A800002C06FEF7FEFC6010E9482264C0168943E
:104A900057F80AC00C5F1F4F2FE3298388248394A3
:104AA000912C6501E89457F853FC04C0481419048C
:104AB00009F018F5342C8114910431F5332009F4F0
:104AC0006ACFB70180E290E00E9498263A94F6CF30
:104AD000F801808189830E5F1F4FE0CFF801C190FC
:104AE000D1908F01692D70E056FC02C06FEF7FEF0F
:104AF000C6010E948D264C01D5CFB70180E290E01F
:104B00000E9498264A94D2CFF60157FC859157FE11
:104B100081916F01B70190E00E94982631103A947C
:104B2000F1E08F1A9108C7CF843619F0893609F061
:104B300074C0F80157FE6AC06191719181919191A1
:104B40008F01252D2F76D22E97FF09C09095809545
:104B5000709561957F4F8F4F9F4F6894D7F82AE0EB
:104B600030E0A5010E94C826C82ECA188C2C5D2CE6
:104B7000D6FE0CC0E89450F8C91440F4D4FE05C029
:104B8000D2FC03C0FD2DFE7E5F2E892C54FE8FC00B
:104B9000FE01EC0DF11D8081803309F081C0252DCF
:104BA000297E522E852D8870382E53FC8FC050FEE2
:104BB00089C09C2C841418F44C0C942C981854FE26
:104BC0008BC0B70180E390E00E94982652FE09C096
:104BD00088E790E051FE02C088E590E0B7010E94AE
:104BE0009826C91408F484C0CA94D12C9FEFC91A1E
:104BF000D90ACA0CDB1CF60182916F01B70190E063
:104C00000E949826AC14BD04B1F758CF6191719100
:104C1000072E000C880B990B93CFD52CE894D4F871
:104C20002AE030E0853739F1952D997FD92E8F36DE
:104C300001F148F48835A9F0F701868197812B9618
:104C4000E2E10C94F922803749F08837A9F7D4FEC5
:104C500002C06894D2F820E130E00DC06894D4F826
:104C6000F6CF54FE03C0E92FE660DE2E20E132E0ED
:104C700002C028E030E0F801D7FE0DC061917191CB
:104C8000819191918F01A5010E94C826C82ECA1852
:104C9000E894D7F86BCF6191719190E080E0F2CF0A
:104CA00052FC02C083947ECF839483947BCF852D66
:104CB000867809F477CFF6CFB70180E290E00E94C2
:104CC000982683948414C0F3312C79CF342C38186F
:104CD000841408F474CFF8CF852D867809F481CF39
:104CE0008BE251FE80E257FC8DE2B70190E077CF76
:104CF000B70180E390E00E9498269A9472CF8FEFDC
:104D00009FEF9DCFFC010590615070400110D8F7D6
:104D1000809590958E0F9F1F0895FC016150704003
:104D200001900110D8F7809590958E0F9F1F0895E0
:104D30000F931F93CF93DF93182F092FEB018B81D4
:104D400081FD09C01FEF0FEF812F902FDF91CF91D1
:104D50001F910F91089582FF14C02E813F818C8195
:104D60009D81281739073CF4E881F981CF0101962C
:104D70009983888310838E819F8101969F838E8380
:104D8000E3CFE885F985812F0995892BA1F3DACF47
:104D9000FA01AA27283051F1203181F1E8946F936C
:104DA0006E7F6E5F7F4F8F4F9F4FAF4FB1E03ED012
:104DB000B4E03CD0670F781F891F9A1FA11D680FB0
:104DC000791F8A1F911DA11D6A0F711D811D911DE3
:104DD000A11D20D009F468943F912AE0269F112458
:104DE0003019305D3193DEF6CF010895462F4770BC
:104DF000405D4193B3E00FD0C9F7F6CF462F4F7017
:104E0000405D4A3318F0495D31FD4052419302D074
:104E1000A9F7EACFB4E0A69597958795779567951A
:104E2000BA95C9F700976105710508959B01AC011A
:104E30000A2E06945795479537952795BA95C9F741
:104E4000620F731F841F951FA01D0895F894FFCF54
:104E5000540954095D095D095F095D095D095D0932
:104E60005409540964095D095D096409010A0D0AC0
:104E7000120A0B0A100A170A150A8B0FB30F4F11EB
:104E8000B30F4F11E60F07104F1105111211CB1878
:104E9000CB183D193D198E19A819FD18FD18B31925
:064EA000891A981A981A05
:104EA6000000E9022000FF137A143D120000000002
:104EB600000000000000000000000000E1135B1489
:104EC60021120000000000000000000000000000A9
:104ED6000000C3133C14051200000000000000008F
:104EE6000000000000000000A5131D14E9110000D9
:104EF6000000000000000000000000000000FFFFAE
:104F0600AF000120002204A00A7F0A7B0A770A016B
:104F16000A25640A00818283E200E900EA00B500FE
:104F2600B600B700CD008301CC008A01920194013E
:104F36002102230224022502260227022A02B300A6
:104F4600B4006F007000404D6D66011901AC005051
:064F56000469048204005E
:00000001FF
